{
  "_format": "hh-sol-artifact-1",
  "contractName": "NFT",
  "sourceName": "contracts/NFT.sol",
  "abi": [
    {
      "inputs": [],
      "stateMutability": "nonpayable",
      "type": "constructor"
    },
    {
      "inputs": [],
      "name": "ApprovalCallerNotOwnerNorApproved",
      "type": "error"
    },
    {
      "inputs": [],
      "name": "ApprovalQueryForNonexistentToken",
      "type": "error"
    },
    {
      "inputs": [],
      "name": "BalanceQueryForZeroAddress",
      "type": "error"
    },
    {
      "inputs": [],
      "name": "InvalidQueryRange",
      "type": "error"
    },
    {
      "inputs": [],
      "name": "InvalidShortString",
      "type": "error"
    },
    {
      "inputs": [],
      "name": "InvalidSignature",
      "type": "error"
    },
    {
      "inputs": [],
      "name": "MintERC2309QuantityExceedsLimit",
      "type": "error"
    },
    {
      "inputs": [],
      "name": "MintToZeroAddress",
      "type": "error"
    },
    {
      "inputs": [],
      "name": "MintZeroQuantity",
      "type": "error"
    },
    {
      "inputs": [],
      "name": "OwnerQueryForNonexistentToken",
      "type": "error"
    },
    {
      "inputs": [],
      "name": "OwnershipNotInitializedForExtraData",
      "type": "error"
    },
    {
      "inputs": [
        {
          "internalType": "string",
          "name": "str",
          "type": "string"
        }
      ],
      "name": "StringTooLong",
      "type": "error"
    },
    {
      "inputs": [],
      "name": "TransferCallerNotOwnerNorApproved",
      "type": "error"
    },
    {
      "inputs": [],
      "name": "TransferFromIncorrectOwner",
      "type": "error"
    },
    {
      "inputs": [],
      "name": "TransferToNonERC721ReceiverImplementer",
      "type": "error"
    },
    {
      "inputs": [],
      "name": "TransferToZeroAddress",
      "type": "error"
    },
    {
      "inputs": [],
      "name": "URIQueryForNonexistentToken",
      "type": "error"
    },
    {
      "anonymous": false,
      "inputs": [
        {
          "indexed": true,
          "internalType": "address",
          "name": "owner",
          "type": "address"
        },
        {
          "indexed": true,
          "internalType": "address",
          "name": "approved",
          "type": "address"
        },
        {
          "indexed": true,
          "internalType": "uint256",
          "name": "tokenId",
          "type": "uint256"
        }
      ],
      "name": "Approval",
      "type": "event"
    },
    {
      "anonymous": false,
      "inputs": [
        {
          "indexed": true,
          "internalType": "address",
          "name": "owner",
          "type": "address"
        },
        {
          "indexed": true,
          "internalType": "address",
          "name": "operator",
          "type": "address"
        },
        {
          "indexed": false,
          "internalType": "bool",
          "name": "approved",
          "type": "bool"
        }
      ],
      "name": "ApprovalForAll",
      "type": "event"
    },
    {
      "anonymous": false,
      "inputs": [
        {
          "indexed": true,
          "internalType": "uint256",
          "name": "fromTokenId",
          "type": "uint256"
        },
        {
          "indexed": false,
          "internalType": "uint256",
          "name": "toTokenId",
          "type": "uint256"
        },
        {
          "indexed": true,
          "internalType": "address",
          "name": "from",
          "type": "address"
        },
        {
          "indexed": true,
          "internalType": "address",
          "name": "to",
          "type": "address"
        }
      ],
      "name": "ConsecutiveTransfer",
      "type": "event"
    },
    {
      "anonymous": false,
      "inputs": [],
      "name": "EIP712DomainChanged",
      "type": "event"
    },
    {
      "anonymous": false,
      "inputs": [
        {
          "indexed": true,
          "internalType": "address",
          "name": "from",
          "type": "address"
        },
        {
          "indexed": true,
          "internalType": "address",
          "name": "to",
          "type": "address"
        },
        {
          "indexed": true,
          "internalType": "uint256",
          "name": "tokenId",
          "type": "uint256"
        }
      ],
      "name": "Transfer",
      "type": "event"
    },
    {
      "inputs": [],
      "name": "MINT_TYPEHASH",
      "outputs": [
        {
          "internalType": "bytes32",
          "name": "",
          "type": "bytes32"
        }
      ],
      "stateMutability": "view",
      "type": "function"
    },
    {
      "inputs": [
        {
          "internalType": "address",
          "name": "to",
          "type": "address"
        },
        {
          "internalType": "uint256",
          "name": "tokenId",
          "type": "uint256"
        }
      ],
      "name": "approve",
      "outputs": [],
      "stateMutability": "payable",
      "type": "function"
    },
    {
      "inputs": [
        {
          "internalType": "address",
          "name": "owner",
          "type": "address"
        }
      ],
      "name": "balanceOf",
      "outputs": [
        {
          "internalType": "uint256",
          "name": "",
          "type": "uint256"
        }
      ],
      "stateMutability": "view",
      "type": "function"
    },
    {
      "inputs": [],
      "name": "eip712Domain",
      "outputs": [
        {
          "internalType": "bytes1",
          "name": "fields",
          "type": "bytes1"
        },
        {
          "internalType": "string",
          "name": "name",
          "type": "string"
        },
        {
          "internalType": "string",
          "name": "version",
          "type": "string"
        },
        {
          "internalType": "uint256",
          "name": "chainId",
          "type": "uint256"
        },
        {
          "internalType": "address",
          "name": "verifyingContract",
          "type": "address"
        },
        {
          "internalType": "bytes32",
          "name": "salt",
          "type": "bytes32"
        },
        {
          "internalType": "uint256[]",
          "name": "extensions",
          "type": "uint256[]"
        }
      ],
      "stateMutability": "view",
      "type": "function"
    },
    {
      "inputs": [
        {
          "internalType": "uint256",
          "name": "tokenId",
          "type": "uint256"
        }
      ],
      "name": "explicitOwnershipOf",
      "outputs": [
        {
          "components": [
            {
              "internalType": "address",
              "name": "addr",
              "type": "address"
            },
            {
              "internalType": "uint64",
              "name": "startTimestamp",
              "type": "uint64"
            },
            {
              "internalType": "bool",
              "name": "burned",
              "type": "bool"
            },
            {
              "internalType": "uint24",
              "name": "extraData",
              "type": "uint24"
            }
          ],
          "internalType": "struct IERC721A.TokenOwnership",
          "name": "",
          "type": "tuple"
        }
      ],
      "stateMutability": "view",
      "type": "function"
    },
    {
      "inputs": [
        {
          "internalType": "uint256[]",
          "name": "tokenIds",
          "type": "uint256[]"
        }
      ],
      "name": "explicitOwnershipsOf",
      "outputs": [
        {
          "components": [
            {
              "internalType": "address",
              "name": "addr",
              "type": "address"
            },
            {
              "internalType": "uint64",
              "name": "startTimestamp",
              "type": "uint64"
            },
            {
              "internalType": "bool",
              "name": "burned",
              "type": "bool"
            },
            {
              "internalType": "uint24",
              "name": "extraData",
              "type": "uint24"
            }
          ],
          "internalType": "struct IERC721A.TokenOwnership[]",
          "name": "",
          "type": "tuple[]"
        }
      ],
      "stateMutability": "view",
      "type": "function"
    },
    {
      "inputs": [
        {
          "internalType": "uint256",
          "name": "tokenId",
          "type": "uint256"
        }
      ],
      "name": "getApproved",
      "outputs": [
        {
          "internalType": "address",
          "name": "",
          "type": "address"
        }
      ],
      "stateMutability": "view",
      "type": "function"
    },
    {
      "inputs": [
        {
          "internalType": "address",
          "name": "owner",
          "type": "address"
        },
        {
          "internalType": "address",
          "name": "operator",
          "type": "address"
        }
      ],
      "name": "isApprovedForAll",
      "outputs": [
        {
          "internalType": "bool",
          "name": "",
          "type": "bool"
        }
      ],
      "stateMutability": "view",
      "type": "function"
    },
    {
      "inputs": [
        {
          "internalType": "uint256",
          "name": "amount",
          "type": "uint256"
        }
      ],
      "name": "mint",
      "outputs": [],
      "stateMutability": "nonpayable",
      "type": "function"
    },
    {
      "inputs": [
        {
          "internalType": "address",
          "name": "to",
          "type": "address"
        },
        {
          "internalType": "uint256",
          "name": "amount",
          "type": "uint256"
        },
        {
          "internalType": "bytes",
          "name": "signature",
          "type": "bytes"
        }
      ],
      "name": "mintTo",
      "outputs": [],
      "stateMutability": "nonpayable",
      "type": "function"
    },
    {
      "inputs": [],
      "name": "name",
      "outputs": [
        {
          "internalType": "string",
          "name": "",
          "type": "string"
        }
      ],
      "stateMutability": "view",
      "type": "function"
    },
    {
      "inputs": [
        {
          "internalType": "address",
          "name": "",
          "type": "address"
        }
      ],
      "name": "nonces",
      "outputs": [
        {
          "internalType": "uint256",
          "name": "",
          "type": "uint256"
        }
      ],
      "stateMutability": "view",
      "type": "function"
    },
    {
      "inputs": [
        {
          "internalType": "uint256",
          "name": "tokenId",
          "type": "uint256"
        }
      ],
      "name": "ownerOf",
      "outputs": [
        {
          "internalType": "address",
          "name": "",
          "type": "address"
        }
      ],
      "stateMutability": "view",
      "type": "function"
    },
    {
      "inputs": [
        {
          "internalType": "address",
          "name": "from",
          "type": "address"
        },
        {
          "internalType": "address",
          "name": "to",
          "type": "address"
        },
        {
          "internalType": "uint256",
          "name": "tokenId",
          "type": "uint256"
        }
      ],
      "name": "safeTransferFrom",
      "outputs": [],
      "stateMutability": "payable",
      "type": "function"
    },
    {
      "inputs": [
        {
          "internalType": "address",
          "name": "from",
          "type": "address"
        },
        {
          "internalType": "address",
          "name": "to",
          "type": "address"
        },
        {
          "internalType": "uint256",
          "name": "tokenId",
          "type": "uint256"
        },
        {
          "internalType": "bytes",
          "name": "_data",
          "type": "bytes"
        }
      ],
      "name": "safeTransferFrom",
      "outputs": [],
      "stateMutability": "payable",
      "type": "function"
    },
    {
      "inputs": [
        {
          "internalType": "address",
          "name": "operator",
          "type": "address"
        },
        {
          "internalType": "bool",
          "name": "approved",
          "type": "bool"
        }
      ],
      "name": "setApprovalForAll",
      "outputs": [],
      "stateMutability": "nonpayable",
      "type": "function"
    },
    {
      "inputs": [
        {
          "internalType": "bytes4",
          "name": "interfaceId",
          "type": "bytes4"
        }
      ],
      "name": "supportsInterface",
      "outputs": [
        {
          "internalType": "bool",
          "name": "",
          "type": "bool"
        }
      ],
      "stateMutability": "view",
      "type": "function"
    },
    {
      "inputs": [],
      "name": "symbol",
      "outputs": [
        {
          "internalType": "string",
          "name": "",
          "type": "string"
        }
      ],
      "stateMutability": "view",
      "type": "function"
    },
    {
      "inputs": [
        {
          "internalType": "uint256",
          "name": "tokenId",
          "type": "uint256"
        }
      ],
      "name": "tokenURI",
      "outputs": [
        {
          "internalType": "string",
          "name": "",
          "type": "string"
        }
      ],
      "stateMutability": "view",
      "type": "function"
    },
    {
      "inputs": [
        {
          "internalType": "address",
          "name": "owner",
          "type": "address"
        }
      ],
      "name": "tokensOfOwner",
      "outputs": [
        {
          "internalType": "uint256[]",
          "name": "",
          "type": "uint256[]"
        }
      ],
      "stateMutability": "view",
      "type": "function"
    },
    {
      "inputs": [
        {
          "internalType": "address",
          "name": "owner",
          "type": "address"
        },
        {
          "internalType": "uint256",
          "name": "start",
          "type": "uint256"
        },
        {
          "internalType": "uint256",
          "name": "stop",
          "type": "uint256"
        }
      ],
      "name": "tokensOfOwnerIn",
      "outputs": [
        {
          "internalType": "uint256[]",
          "name": "",
          "type": "uint256[]"
        }
      ],
      "stateMutability": "view",
      "type": "function"
    },
    {
      "inputs": [],
      "name": "totalSupply",
      "outputs": [
        {
          "internalType": "uint256",
          "name": "",
          "type": "uint256"
        }
      ],
      "stateMutability": "view",
      "type": "function"
    },
    {
      "inputs": [
        {
          "internalType": "address",
          "name": "from",
          "type": "address"
        },
        {
          "internalType": "address",
          "name": "to",
          "type": "address"
        },
        {
          "internalType": "uint256",
          "name": "tokenId",
          "type": "uint256"
        }
      ],
      "name": "transferFrom",
      "outputs": [],
      "stateMutability": "payable",
      "type": "function"
    }
  ],
  "bytecode": "0x6101606040523480156200001257600080fd5b506040518060400160405280600f81526020017f5465737420436f6c6c656374696f6e00000000000000000000000000000000008152506040518060400160405280600181526020017f31000000000000000000000000000000000000000000000000000000000000008152506040518060400160405280600f81526020017f5465737420436f6c6c656374696f6e00000000000000000000000000000000008152506040518060400160405280600481526020017f54455354000000000000000000000000000000000000000000000000000000008152508160029081620000fc919062000588565b5080600390816200010e919062000588565b506200011f620001dd60201b60201c565b60008190555050506200013d600883620001e260201b90919060201c565b61012081815250506200015b600982620001e260201b90919060201c565b6101408181525050818051906020012060e08181525050808051906020012061010081815250504660a081815250506200019a6200023a60201b60201c565b608081815250503073ffffffffffffffffffffffffffffffffffffffff1660c08173ffffffffffffffffffffffffffffffffffffffff1681525050505062000892565b600090565b6000602083511015620002085762000200836200029760201b60201c565b905062000234565b826200021a836200030460201b60201c565b60000190816200022b919062000588565b5060ff60001b90505b92915050565b60007f8b73c3c69bb8fe3d512ecc4cf759cc79239f7b179b0ffacaa9a75d522b39400f60e0516101005146306040516020016200027c959493929190620006e0565b60405160208183030381529060405280519060200120905090565b600080829050601f81511115620002e757826040517f305a27a9000000000000000000000000000000000000000000000000000000008152600401620002de9190620007cc565b60405180910390fd5b805181620002f59062000822565b60001c1760001b915050919050565b6000819050919050565b600081519050919050565b7f4e487b7100000000000000000000000000000000000000000000000000000000600052604160045260246000fd5b7f4e487b7100000000000000000000000000000000000000000000000000000000600052602260045260246000fd5b600060028204905060018216806200039057607f821691505b602082108103620003a657620003a562000348565b5b50919050565b60008190508160005260206000209050919050565b60006020601f8301049050919050565b600082821b905092915050565b600060088302620004107fffffffffffffffffffffffffffffffffffffffffffffffffffffffffffffffff82620003d1565b6200041c8683620003d1565b95508019841693508086168417925050509392505050565b6000819050919050565b6000819050919050565b600062000469620004636200045d8462000434565b6200043e565b62000434565b9050919050565b6000819050919050565b620004858362000448565b6200049d620004948262000470565b848454620003de565b825550505050565b600090565b620004b4620004a5565b620004c18184846200047a565b505050565b5b81811015620004e957620004dd600082620004aa565b600181019050620004c7565b5050565b601f82111562000538576200050281620003ac565b6200050d84620003c1565b810160208510156200051d578190505b620005356200052c85620003c1565b830182620004c6565b50505b505050565b600082821c905092915050565b60006200055d600019846008026200053d565b1980831691505092915050565b60006200057883836200054a565b9150826002028217905092915050565b62000593826200030e565b67ffffffffffffffff811115620005af57620005ae62000319565b5b620005bb825462000377565b620005c8828285620004ed565b600060209050601f831160018114620006005760008415620005eb578287015190505b620005f785826200056a565b86555062000667565b601f1984166200061086620003ac565b60005b828110156200063a5784890151825560018201915060208501945060208101905062000613565b868310156200065a578489015162000656601f8916826200054a565b8355505b6001600288020188555050505b505050505050565b6000819050919050565b62000684816200066f565b82525050565b620006958162000434565b82525050565b600073ffffffffffffffffffffffffffffffffffffffff82169050919050565b6000620006c8826200069b565b9050919050565b620006da81620006bb565b82525050565b600060a082019050620006f7600083018862000679565b62000706602083018762000679565b62000715604083018662000679565b6200072460608301856200068a565b620007336080830184620006cf565b9695505050505050565b600082825260208201905092915050565b60005b838110156200076e57808201518184015260208101905062000751565b60008484015250505050565b6000601f19601f8301169050919050565b600062000798826200030e565b620007a481856200073d565b9350620007b68185602086016200074e565b620007c1816200077a565b840191505092915050565b60006020820190508181036000830152620007e881846200078b565b905092915050565b600081519050919050565b6000819050602082019050919050565b60006200081982516200066f565b80915050919050565b60006200082f82620007f0565b826200083b84620007fb565b905062000848816200080b565b925060208210156200088b57620008867fffffffffffffffffffffffffffffffffffffffffffffffffffffffffffffffff83602003600802620003d1565b831692505b5050919050565b60805160a05160c05160e0516101005161012051610140516133f4620008ed600039600061191a015260006118df015260006122420152600061222101526000611f1401526000611f6a01526000611f9301526133f46000f3fe6080604052600436106101405760003560e01c80638462151c116100b6578063b88d4fde1161006f578063b88d4fde14610485578063c23dc68f146104a1578063c87b56dd146104de578063dfdbb2021461051b578063e985e9c514610544578063f76fc35e1461058157610140565b80638462151c1461035d57806384b0196e1461039a57806395d89b41146103cb57806399a2557a146103f6578063a0712d6814610433578063a22cb4651461045c57610140565b806323b872dd1161010857806323b872dd1461023157806342842e0e1461024d5780635bbb2177146102695780636352211e146102a657806370a08231146102e35780637ecebe001461032057610140565b806301ffc9a71461014557806306fdde0314610182578063081812fc146101ad578063095ea7b3146101ea57806318160ddd14610206575b600080fd5b34801561015157600080fd5b5061016c60048036038101906101679190612491565b6105ac565b60405161017991906124d9565b60405180910390f35b34801561018e57600080fd5b5061019761063e565b6040516101a49190612584565b60405180910390f35b3480156101b957600080fd5b506101d460048036038101906101cf91906125dc565b6106d0565b6040516101e1919061264a565b60405180910390f35b61020460048036038101906101ff9190612691565b61074f565b005b34801561021257600080fd5b5061021b610893565b60405161022891906126e0565b60405180910390f35b61024b600480360381019061024691906126fb565b6108aa565b005b610267600480360381019061026291906126fb565b610bcc565b005b34801561027557600080fd5b50610290600480360381019061028b91906127b3565b610bec565b60405161029d9190612963565b60405180910390f35b3480156102b257600080fd5b506102cd60048036038101906102c891906125dc565b610caf565b6040516102da919061264a565b60405180910390f35b3480156102ef57600080fd5b5061030a60048036038101906103059190612985565b610cc1565b60405161031791906126e0565b60405180910390f35b34801561032c57600080fd5b5061034760048036038101906103429190612985565b610d79565b60405161035491906126e0565b60405180910390f35b34801561036957600080fd5b50610384600480360381019061037f9190612985565b610d91565b6040516103919190612a70565b60405180910390f35b3480156103a657600080fd5b506103af610ed4565b6040516103c29796959493929190612ae6565b60405180910390f35b3480156103d757600080fd5b506103e0610f7e565b6040516103ed9190612584565b60405180910390f35b34801561040257600080fd5b5061041d60048036038101906104189190612b6a565b611010565b60405161042a9190612a70565b60405180910390f35b34801561043f57600080fd5b5061045a600480360381019061045591906125dc565b61121c565b005b34801561046857600080fd5b50610483600480360381019061047e9190612be9565b611229565b005b61049f600480360381019061049a9190612d59565b611334565b005b3480156104ad57600080fd5b506104c860048036038101906104c391906125dc565b6113a7565b6040516104d59190612e31565b60405180910390f35b3480156104ea57600080fd5b50610505600480360381019061050091906125dc565b611411565b6040516105129190612584565b60405180910390f35b34801561052757600080fd5b50610542600480360381019061053d9190612ea2565b6114af565b005b34801561055057600080fd5b5061056b60048036038101906105669190612f16565b6115f1565b60405161057891906124d9565b60405180910390f35b34801561058d57600080fd5b50610596611685565b6040516105a39190612f56565b60405180910390f35b60006301ffc9a760e01b827bffffffffffffffffffffffffffffffffffffffffffffffffffffffff1916148061060757506380ac58cd60e01b827bffffffffffffffffffffffffffffffffffffffffffffffffffffffff1916145b806106375750635b5e139f60e01b827bffffffffffffffffffffffffffffffffffffffffffffffffffffffff1916145b9050919050565b60606002805461064d90612fa0565b80601f016020809104026020016040519081016040528092919081815260200182805461067990612fa0565b80156106c65780601f1061069b576101008083540402835291602001916106c6565b820191906000526020600020905b8154815290600101906020018083116106a957829003601f168201915b5050505050905090565b60006106db826116a9565b610711576040517fcf4700e400000000000000000000000000000000000000000000000000000000815260040160405180910390fd5b6006600083815260200190815260200160002060000160009054906101000a900473ffffffffffffffffffffffffffffffffffffffff169050919050565b600061075a82610caf565b90508073ffffffffffffffffffffffffffffffffffffffff1661077b611708565b73ffffffffffffffffffffffffffffffffffffffff16146107de576107a7816107a2611708565b6115f1565b6107dd576040517fcfb3b94200000000000000000000000000000000000000000000000000000000815260040160405180910390fd5b5b826006600084815260200190815260200160002060000160006101000a81548173ffffffffffffffffffffffffffffffffffffffff021916908373ffffffffffffffffffffffffffffffffffffffff160217905550818373ffffffffffffffffffffffffffffffffffffffff168273ffffffffffffffffffffffffffffffffffffffff167f8c5be1e5ebec7d5bd14f71427d1e84f3dd0314c0f7b2291e5b200ac8c7c3b92560405160405180910390a4505050565b600061089d611710565b6001546000540303905090565b60006108b582611715565b90508373ffffffffffffffffffffffffffffffffffffffff168173ffffffffffffffffffffffffffffffffffffffff161461091c576040517fa114810000000000000000000000000000000000000000000000000000000000815260040160405180910390fd5b600080610928846117e1565b9150915061093e8187610939611708565b611808565b61098a576109538661094e611708565b6115f1565b610989576040517f59c896be00000000000000000000000000000000000000000000000000000000815260040160405180910390fd5b5b600073ffffffffffffffffffffffffffffffffffffffff168573ffffffffffffffffffffffffffffffffffffffff16036109f0576040517fea553b3400000000000000000000000000000000000000000000000000000000815260040160405180910390fd5b6109fd868686600161184c565b8015610a0857600082555b600560008773ffffffffffffffffffffffffffffffffffffffff1673ffffffffffffffffffffffffffffffffffffffff168152602001908152602001600020600081546001900391905081905550600560008673ffffffffffffffffffffffffffffffffffffffff1673ffffffffffffffffffffffffffffffffffffffff1681526020019081526020016000206000815460010191905081905550610ad685610ab2888887611852565b7c02000000000000000000000000000000000000000000000000000000001761187a565b600460008681526020019081526020016000208190555060007c0200000000000000000000000000000000000000000000000000000000841603610b5c5760006001850190506000600460008381526020019081526020016000205403610b5a576000548114610b59578360046000838152602001908152602001600020819055505b5b505b838573ffffffffffffffffffffffffffffffffffffffff168773ffffffffffffffffffffffffffffffffffffffff167fddf252ad1be2c89b69c2b068fc378daa952ba7f163c4a11628f55a4df523b3ef60405160405180910390a4610bc486868660016118a5565b505050505050565b610be783838360405180602001604052806000815250611334565b505050565b6060600083839050905060008167ffffffffffffffff811115610c1257610c11612c2e565b5b604051908082528060200260200182016040528015610c4b57816020015b610c386123d6565b815260200190600190039081610c305790505b50905060005b828114610ca357610c7a868683818110610c6e57610c6d612fd1565b5b905060200201356113a7565b828281518110610c8d57610c8c612fd1565b5b6020026020010181905250806001019050610c51565b50809250505092915050565b6000610cba82611715565b9050919050565b60008073ffffffffffffffffffffffffffffffffffffffff168273ffffffffffffffffffffffffffffffffffffffff1603610d28576040517f8f4eb60400000000000000000000000000000000000000000000000000000000815260040160405180910390fd5b67ffffffffffffffff600560008473ffffffffffffffffffffffffffffffffffffffff1673ffffffffffffffffffffffffffffffffffffffff16815260200190815260200160002054169050919050565b600a6020528060005260406000206000915090505481565b60606000806000610da185610cc1565b905060008167ffffffffffffffff811115610dbf57610dbe612c2e565b5b604051908082528060200260200182016040528015610ded5781602001602082028036833780820191505090505b509050610df86123d6565b6000610e02611710565b90505b838614610ec657610e15816118ab565b91508160400151610ebb57600073ffffffffffffffffffffffffffffffffffffffff16826000015173ffffffffffffffffffffffffffffffffffffffff1614610e6057816000015194505b8773ffffffffffffffffffffffffffffffffffffffff168573ffffffffffffffffffffffffffffffffffffffff1603610eba5780838780600101985081518110610ead57610eac612fd1565b5b6020026020010181815250505b5b806001019050610e05565b508195505050505050919050565b600060608060008060006060610ee86118d6565b610ef0611911565b46306000801b600067ffffffffffffffff811115610f1157610f10612c2e565b5b604051908082528060200260200182016040528015610f3f5781602001602082028036833780820191505090505b507f0f00000000000000000000000000000000000000000000000000000000000000959493929190965096509650965096509650965090919293949596565b606060038054610f8d90612fa0565b80601f0160208091040260200160405190810160405280929190818152602001828054610fb990612fa0565b80156110065780601f10610fdb57610100808354040283529160200191611006565b820191906000526020600020905b815481529060010190602001808311610fe957829003601f168201915b5050505050905090565b606081831061104b576040517f32c1995a00000000000000000000000000000000000000000000000000000000815260040160405180910390fd5b60008061105661194c565b9050611060611710565b8510156110725761106f611710565b94505b8084111561107e578093505b600061108987610cc1565b9050848610156110ac5760008686039050818110156110a6578091505b506110b1565b600090505b60008167ffffffffffffffff8111156110cd576110cc612c2e565b5b6040519080825280602002602001820160405280156110fb5781602001602082028036833780820191505090505b509050600082036111125780945050505050611215565b600061111d886113a7565b90506000816040015161113257816000015190505b60008990505b8881141580156111485750848714155b1561120757611156816118ab565b925082604001516111fc57600073ffffffffffffffffffffffffffffffffffffffff16836000015173ffffffffffffffffffffffffffffffffffffffff16146111a157826000015191505b8a73ffffffffffffffffffffffffffffffffffffffff168273ffffffffffffffffffffffffffffffffffffffff16036111fb57808488806001019950815181106111ee576111ed612fd1565b5b6020026020010181815250505b5b806001019050611138565b508583528296505050505050505b9392505050565b6112263382611955565b50565b8060076000611236611708565b73ffffffffffffffffffffffffffffffffffffffff1673ffffffffffffffffffffffffffffffffffffffff16815260200190815260200160002060008473ffffffffffffffffffffffffffffffffffffffff1673ffffffffffffffffffffffffffffffffffffffff16815260200190815260200160002060006101000a81548160ff0219169083151502179055508173ffffffffffffffffffffffffffffffffffffffff166112e3611708565b73ffffffffffffffffffffffffffffffffffffffff167f17307eab39ab6107e8899845ad3d59bd9653f200f220920489ca2b5937696c318360405161132891906124d9565b60405180910390a35050565b61133f8484846108aa565b60008373ffffffffffffffffffffffffffffffffffffffff163b146113a15761136a84848484611b10565b6113a0576040517fd1a57ed600000000000000000000000000000000000000000000000000000000815260040160405180910390fd5b5b50505050565b6113af6123d6565b6113b76123d6565b6113bf611710565b8310806113d357506113cf61194c565b8310155b156113e1578091505061140c565b6113ea836118ab565b90508060400151156113ff578091505061140c565b61140883611c60565b9150505b919050565b606061141c826116a9565b611452576040517fa14c4b5000000000000000000000000000000000000000000000000000000000815260040160405180910390fd5b600061145c611c80565b9050600081510361147c57604051806020016040528060008152506114a7565b8061148684611c97565b60405160200161149792919061303c565b6040516020818303038152906040525b915050919050565b60006115597fc41862eb9ece13447daf71183a106701c9d77060880ddcb36abd70525866bba08686600a60003373ffffffffffffffffffffffffffffffffffffffff1673ffffffffffffffffffffffffffffffffffffffff16815260200190815260200160002060008154809291906115279061308f565b9190505560405160200161153e94939291906130d7565b60405160208183030381529060405280519060200120611ce7565b90506115aa858285858080601f016020809104026020016040519081016040528093929190818152602001838380828437600081840152601f19601f82011690508083019250505050505050611d01565b6115e0576040517f8baa579f00000000000000000000000000000000000000000000000000000000815260040160405180910390fd5b6115ea8585611955565b5050505050565b6000600760008473ffffffffffffffffffffffffffffffffffffffff1673ffffffffffffffffffffffffffffffffffffffff16815260200190815260200160002060008373ffffffffffffffffffffffffffffffffffffffff1673ffffffffffffffffffffffffffffffffffffffff16815260200190815260200160002060009054906101000a900460ff16905092915050565b7fc41862eb9ece13447daf71183a106701c9d77060880ddcb36abd70525866bba081565b6000816116b4611710565b111580156116c3575060005482105b8015611701575060007c0100000000000000000000000000000000000000000000000000000000600460008581526020019081526020016000205416145b9050919050565b600033905090565b600090565b60008082905080611724611710565b116117aa576000548110156117a95760006004600083815260200190815260200160002054905060007c01000000000000000000000000000000000000000000000000000000008216036117a7575b6000810361179d576004600083600190039350838152602001908152602001600020549050611773565b80925050506117dc565b505b5b6040517fdf2d9b4200000000000000000000000000000000000000000000000000000000815260040160405180910390fd5b919050565b60008060006006600085815260200190815260200160002090508092508254915050915091565b600073ffffffffffffffffffffffffffffffffffffffff8316925073ffffffffffffffffffffffffffffffffffffffff821691508382148383141790509392505050565b50505050565b60008060e883901c905060e8611869868684611d91565b62ffffff16901b9150509392505050565b600073ffffffffffffffffffffffffffffffffffffffff83169250814260a01b178317905092915050565b50505050565b6118b36123d6565b6118cf6004600084815260200190815260200160002054611d9a565b9050919050565b606061190c60087f0000000000000000000000000000000000000000000000000000000000000000611e5090919063ffffffff16565b905090565b606061194760097f0000000000000000000000000000000000000000000000000000000000000000611e5090919063ffffffff16565b905090565b60008054905090565b60008054905060008203611995576040517fb562e8dd00000000000000000000000000000000000000000000000000000000815260040160405180910390fd5b6119a2600084838561184c565b600160406001901b178202600560008573ffffffffffffffffffffffffffffffffffffffff1673ffffffffffffffffffffffffffffffffffffffff16815260200190815260200160002060008282540192505081905550611a1983611a0a6000866000611852565b611a1385611f00565b1761187a565b6004600083815260200190815260200160002081905550600080838301905073ffffffffffffffffffffffffffffffffffffffff85169150828260007fddf252ad1be2c89b69c2b068fc378daa952ba7f163c4a11628f55a4df523b3ef600080a4600183015b818114611aba57808360007fddf252ad1be2c89b69c2b068fc378daa952ba7f163c4a11628f55a4df523b3ef600080a4600181019050611a7f565b5060008203611af5576040517f2e07630000000000000000000000000000000000000000000000000000000000815260040160405180910390fd5b806000819055505050611b0b60008483856118a5565b505050565b60008373ffffffffffffffffffffffffffffffffffffffff1663150b7a02611b36611708565b8786866040518563ffffffff1660e01b8152600401611b589493929190613171565b6020604051808303816000875af1925050508015611b9457506040513d601f19601f82011682018060405250810190611b9191906131d2565b60015b611c0d573d8060008114611bc4576040519150601f19603f3d011682016040523d82523d6000602084013e611bc9565b606091505b506000815103611c05576040517fd1a57ed600000000000000000000000000000000000000000000000000000000815260040160405180910390fd5b805181602001fd5b63150b7a0260e01b7bffffffffffffffffffffffffffffffffffffffffffffffffffffffff1916817bffffffffffffffffffffffffffffffffffffffffffffffffffffffff191614915050949350505050565b611c686123d6565b611c79611c7483611715565b611d9a565b9050919050565b606060405180602001604052806000815250905090565b606060a060405101806040526020810391506000825281835b600115611cd257600184039350600a81066030018453600a8104905080611cb0575b50828103602084039350808452505050919050565b6000611cfa611cf4611f10565b83611fc7565b9050919050565b6000806000611d108585612008565b509150915060006003811115611d2957611d286131ff565b5b816003811115611d3c57611d3b6131ff565b5b148015611d7457508573ffffffffffffffffffffffffffffffffffffffff168273ffffffffffffffffffffffffffffffffffffffff16145b80611d865750611d85868686612064565b5b925050509392505050565b60009392505050565b611da26123d6565b81816000019073ffffffffffffffffffffffffffffffffffffffff16908173ffffffffffffffffffffffffffffffffffffffff168152505060a082901c816020019067ffffffffffffffff16908167ffffffffffffffff168152505060007c01000000000000000000000000000000000000000000000000000000008316141581604001901515908115158152505060e882901c816060019062ffffff16908162ffffff1681525050919050565b606060ff60001b8314611e6d57611e6683612188565b9050611efa565b818054611e7990612fa0565b80601f0160208091040260200160405190810160405280929190818152602001828054611ea590612fa0565b8015611ef25780601f10611ec757610100808354040283529160200191611ef2565b820191906000526020600020905b815481529060010190602001808311611ed557829003601f168201915b505050505090505b92915050565b60006001821460e11b9050919050565b60007f000000000000000000000000000000000000000000000000000000000000000073ffffffffffffffffffffffffffffffffffffffff163073ffffffffffffffffffffffffffffffffffffffff16148015611f8c57507f000000000000000000000000000000000000000000000000000000000000000046145b15611fb9577f00000000000000000000000000000000000000000000000000000000000000009050611fc4565b611fc16121fc565b90505b90565b60006040517f190100000000000000000000000000000000000000000000000000000000000081528360028201528260228201526042812091505092915050565b6000806000604184510361204d5760008060006020870151925060408701519150606087015160001a905061203f88828585612292565b95509550955050505061205d565b60006002855160001b9250925092505b9250925092565b60008060008573ffffffffffffffffffffffffffffffffffffffff16858560405160240161209392919061322e565b604051602081830303815290604052631626ba7e60e01b6020820180517bffffffffffffffffffffffffffffffffffffffffffffffffffffffff83818316178352505050506040516120e5919061329a565b600060405180830381855afa9150503d8060008114612120576040519150601f19603f3d011682016040523d82523d6000602084013e612125565b606091505b509150915081801561213957506020815110155b801561217d5750631626ba7e60e01b7bffffffffffffffffffffffffffffffffffffffffffffffffffffffff19168180602001905181019061217b91906132dd565b145b925050509392505050565b6060600061219583612386565b90506000602067ffffffffffffffff8111156121b4576121b3612c2e565b5b6040519080825280601f01601f1916602001820160405280156121e65781602001600182028036833780820191505090505b5090508181528360208201528092505050919050565b60007f8b73c3c69bb8fe3d512ecc4cf759cc79239f7b179b0ffacaa9a75d522b39400f7f00000000000000000000000000000000000000000000000000000000000000007f0000000000000000000000000000000000000000000000000000000000000000463060405160200161227795949392919061330a565b60405160208183030381529060405280519060200120905090565b60008060007f7fffffffffffffffffffffffffffffff5d576e7357a4501ddfe92f46681b20a08460001c11156122d257600060038592509250925061237c565b6000600188888888604051600081526020016040526040516122f79493929190613379565b6020604051602081039080840390855afa158015612319573d6000803e3d6000fd5b505050602060405103519050600073ffffffffffffffffffffffffffffffffffffffff168173ffffffffffffffffffffffffffffffffffffffff160361236d57600060016000801b9350935093505061237c565b8060008060001b935093509350505b9450945094915050565b60008060ff8360001c169050601f8111156123cd576040517fb3512b0c00000000000000000000000000000000000000000000000000000000815260040160405180910390fd5b80915050919050565b6040518060800160405280600073ffffffffffffffffffffffffffffffffffffffff168152602001600067ffffffffffffffff168152602001600015158152602001600062ffffff1681525090565b6000604051905090565b600080fd5b600080fd5b60007fffffffff0000000000000000000000000000000000000000000000000000000082169050919050565b61246e81612439565b811461247957600080fd5b50565b60008135905061248b81612465565b92915050565b6000602082840312156124a7576124a661242f565b5b60006124b58482850161247c565b91505092915050565b60008115159050919050565b6124d3816124be565b82525050565b60006020820190506124ee60008301846124ca565b92915050565b600081519050919050565b600082825260208201905092915050565b60005b8381101561252e578082015181840152602081019050612513565b60008484015250505050565b6000601f19601f8301169050919050565b6000612556826124f4565b61256081856124ff565b9350612570818560208601612510565b6125798161253a565b840191505092915050565b6000602082019050818103600083015261259e818461254b565b905092915050565b6000819050919050565b6125b9816125a6565b81146125c457600080fd5b50565b6000813590506125d6816125b0565b92915050565b6000602082840312156125f2576125f161242f565b5b6000612600848285016125c7565b91505092915050565b600073ffffffffffffffffffffffffffffffffffffffff82169050919050565b600061263482612609565b9050919050565b61264481612629565b82525050565b600060208201905061265f600083018461263b565b92915050565b61266e81612629565b811461267957600080fd5b50565b60008135905061268b81612665565b92915050565b600080604083850312156126a8576126a761242f565b5b60006126b68582860161267c565b92505060206126c7858286016125c7565b9150509250929050565b6126da816125a6565b82525050565b60006020820190506126f560008301846126d1565b92915050565b6000806000606084860312156127145761271361242f565b5b60006127228682870161267c565b93505060206127338682870161267c565b9250506040612744868287016125c7565b9150509250925092565b600080fd5b600080fd5b600080fd5b60008083601f8401126127735761277261274e565b5b8235905067ffffffffffffffff8111156127905761278f612753565b5b6020830191508360208202830111156127ac576127ab612758565b5b9250929050565b600080602083850312156127ca576127c961242f565b5b600083013567ffffffffffffffff8111156127e8576127e7612434565b5b6127f48582860161275d565b92509250509250929050565b600081519050919050565b600082825260208201905092915050565b6000819050602082019050919050565b61283581612629565b82525050565b600067ffffffffffffffff82169050919050565b6128588161283b565b82525050565b612867816124be565b82525050565b600062ffffff82169050919050565b6128858161286d565b82525050565b6080820160008201516128a1600085018261282c565b5060208201516128b4602085018261284f565b5060408201516128c7604085018261285e565b5060608201516128da606085018261287c565b50505050565b60006128ec838361288b565b60808301905092915050565b6000602082019050919050565b600061291082612800565b61291a818561280b565b93506129258361281c565b8060005b8381101561295657815161293d88826128e0565b9750612948836128f8565b925050600181019050612929565b5085935050505092915050565b6000602082019050818103600083015261297d8184612905565b905092915050565b60006020828403121561299b5761299a61242f565b5b60006129a98482850161267c565b91505092915050565b600081519050919050565b600082825260208201905092915050565b6000819050602082019050919050565b6129e7816125a6565b82525050565b60006129f983836129de565b60208301905092915050565b6000602082019050919050565b6000612a1d826129b2565b612a2781856129bd565b9350612a32836129ce565b8060005b83811015612a63578151612a4a88826129ed565b9750612a5583612a05565b925050600181019050612a36565b5085935050505092915050565b60006020820190508181036000830152612a8a8184612a12565b905092915050565b60007fff0000000000000000000000000000000000000000000000000000000000000082169050919050565b612ac781612a92565b82525050565b6000819050919050565b612ae081612acd565b82525050565b600060e082019050612afb600083018a612abe565b8181036020830152612b0d818961254b565b90508181036040830152612b21818861254b565b9050612b3060608301876126d1565b612b3d608083018661263b565b612b4a60a0830185612ad7565b81810360c0830152612b5c8184612a12565b905098975050505050505050565b600080600060608486031215612b8357612b8261242f565b5b6000612b918682870161267c565b9350506020612ba2868287016125c7565b9250506040612bb3868287016125c7565b9150509250925092565b612bc6816124be565b8114612bd157600080fd5b50565b600081359050612be381612bbd565b92915050565b60008060408385031215612c0057612bff61242f565b5b6000612c0e8582860161267c565b9250506020612c1f85828601612bd4565b9150509250929050565b600080fd5b7f4e487b7100000000000000000000000000000000000000000000000000000000600052604160045260246000fd5b612c668261253a565b810181811067ffffffffffffffff82111715612c8557612c84612c2e565b5b80604052505050565b6000612c98612425565b9050612ca48282612c5d565b919050565b600067ffffffffffffffff821115612cc457612cc3612c2e565b5b612ccd8261253a565b9050602081019050919050565b82818337600083830152505050565b6000612cfc612cf784612ca9565b612c8e565b905082815260208101848484011115612d1857612d17612c29565b5b612d23848285612cda565b509392505050565b600082601f830112612d4057612d3f61274e565b5b8135612d50848260208601612ce9565b91505092915050565b60008060008060808587031215612d7357612d7261242f565b5b6000612d818782880161267c565b9450506020612d928782880161267c565b9350506040612da3878288016125c7565b925050606085013567ffffffffffffffff811115612dc457612dc3612434565b5b612dd087828801612d2b565b91505092959194509250565b608082016000820151612df2600085018261282c565b506020820151612e05602085018261284f565b506040820151612e18604085018261285e565b506060820151612e2b606085018261287c565b50505050565b6000608082019050612e466000830184612ddc565b92915050565b60008083601f840112612e6257612e6161274e565b5b8235905067ffffffffffffffff811115612e7f57612e7e612753565b5b602083019150836001820283011115612e9b57612e9a612758565b5b9250929050565b60008060008060608587031215612ebc57612ebb61242f565b5b6000612eca8782880161267c565b9450506020612edb878288016125c7565b935050604085013567ffffffffffffffff811115612efc57612efb612434565b5b612f0887828801612e4c565b925092505092959194509250565b60008060408385031215612f2d57612f2c61242f565b5b6000612f3b8582860161267c565b9250506020612f4c8582860161267c565b9150509250929050565b6000602082019050612f6b6000830184612ad7565b92915050565b7f4e487b7100000000000000000000000000000000000000000000000000000000600052602260045260246000fd5b60006002820490506001821680612fb857607f821691505b602082108103612fcb57612fca612f71565b5b50919050565b7f4e487b7100000000000000000000000000000000000000000000000000000000600052603260045260246000fd5b600081905092915050565b6000613016826124f4565b6130208185613000565b9350613030818560208601612510565b80840191505092915050565b6000613048828561300b565b9150613054828461300b565b91508190509392505050565b7f4e487b7100000000000000000000000000000000000000000000000000000000600052601160045260246000fd5b600061309a826125a6565b91507fffffffffffffffffffffffffffffffffffffffffffffffffffffffffffffffff82036130cc576130cb613060565b5b600182019050919050565b60006080820190506130ec6000830187612ad7565b6130f9602083018661263b565b61310660408301856126d1565b61311360608301846126d1565b95945050505050565b600081519050919050565b600082825260208201905092915050565b60006131438261311c565b61314d8185613127565b935061315d818560208601612510565b6131668161253a565b840191505092915050565b6000608082019050613186600083018761263b565b613193602083018661263b565b6131a060408301856126d1565b81810360608301526131b28184613138565b905095945050505050565b6000815190506131cc81612465565b92915050565b6000602082840312156131e8576131e761242f565b5b60006131f6848285016131bd565b91505092915050565b7f4e487b7100000000000000000000000000000000000000000000000000000000600052602160045260246000fd5b60006040820190506132436000830185612ad7565b81810360208301526132558184613138565b90509392505050565b600081905092915050565b60006132748261311c565b61327e818561325e565b935061328e818560208601612510565b80840191505092915050565b60006132a68284613269565b915081905092915050565b6132ba81612acd565b81146132c557600080fd5b50565b6000815190506132d7816132b1565b92915050565b6000602082840312156132f3576132f261242f565b5b6000613301848285016132c8565b91505092915050565b600060a08201905061331f6000830188612ad7565b61332c6020830187612ad7565b6133396040830186612ad7565b61334660608301856126d1565b613353608083018461263b565b9695505050505050565b600060ff82169050919050565b6133738161335d565b82525050565b600060808201905061338e6000830187612ad7565b61339b602083018661336a565b6133a86040830185612ad7565b6133b56060830184612ad7565b9594505050505056fea264697066735822122044915a4c499cf2ea4d30df42fa032a1ba54cc95f9e6828d08a2190c4d0ca88a764736f6c63430008140033",
  "linkReferences": {},
  "deployedLinkReferences": {}
}